{
  "contractName": "Minter",
  "abi": [
    {
      "inputs": [
        {
          "internalType": "string",
          "name": "tokenName",
          "type": "string"
        },
        {
          "internalType": "string",
          "name": "symbol",
          "type": "string"
        }
      ],
      "stateMutability": "nonpayable",
      "type": "constructor"
    },
    {
      "inputs": [],
      "name": "MinterError",
      "type": "error"
    },
    {
      "anonymous": false,
      "inputs": [
        {
          "indexed": true,
          "internalType": "address",
          "name": "owner",
          "type": "address"
        },
        {
          "indexed": true,
          "internalType": "address",
          "name": "approved",
          "type": "address"
        },
        {
          "indexed": true,
          "internalType": "uint256",
          "name": "tokenId",
          "type": "uint256"
        }
      ],
      "name": "Approval",
      "type": "event"
    },
    {
      "anonymous": false,
      "inputs": [
        {
          "indexed": true,
          "internalType": "address",
          "name": "owner",
          "type": "address"
        },
        {
          "indexed": true,
          "internalType": "address",
          "name": "operator",
          "type": "address"
        },
        {
          "indexed": false,
          "internalType": "bool",
          "name": "approved",
          "type": "bool"
        }
      ],
      "name": "ApprovalForAll",
      "type": "event"
    },
    {
      "anonymous": false,
      "inputs": [
        {
          "indexed": true,
          "internalType": "address",
          "name": "from",
          "type": "address"
        },
        {
          "indexed": true,
          "internalType": "address",
          "name": "to",
          "type": "address"
        },
        {
          "indexed": true,
          "internalType": "uint256",
          "name": "tokenId",
          "type": "uint256"
        }
      ],
      "name": "Transfer",
      "type": "event"
    },
    {
      "inputs": [
        {
          "internalType": "address",
          "name": "",
          "type": "address"
        },
        {
          "internalType": "uint256",
          "name": "",
          "type": "uint256"
        }
      ],
      "name": "_ownedTokens",
      "outputs": [
        {
          "internalType": "uint256",
          "name": "",
          "type": "uint256"
        }
      ],
      "stateMutability": "view",
      "type": "function",
      "constant": true
    },
    {
      "inputs": [
        {
          "internalType": "address",
          "name": "to",
          "type": "address"
        },
        {
          "internalType": "uint256",
          "name": "tokenId",
          "type": "uint256"
        }
      ],
      "name": "approve",
      "outputs": [],
      "stateMutability": "nonpayable",
      "type": "function"
    },
    {
      "inputs": [
        {
          "internalType": "address",
          "name": "owner",
          "type": "address"
        }
      ],
      "name": "balanceOf",
      "outputs": [
        {
          "internalType": "uint256",
          "name": "",
          "type": "uint256"
        }
      ],
      "stateMutability": "view",
      "type": "function",
      "constant": true
    },
    {
      "inputs": [
        {
          "internalType": "uint256",
          "name": "tokenId",
          "type": "uint256"
        }
      ],
      "name": "getApproved",
      "outputs": [
        {
          "internalType": "address",
          "name": "",
          "type": "address"
        }
      ],
      "stateMutability": "view",
      "type": "function",
      "constant": true
    },
    {
      "inputs": [
        {
          "internalType": "address",
          "name": "owner",
          "type": "address"
        },
        {
          "internalType": "address",
          "name": "operator",
          "type": "address"
        }
      ],
      "name": "isApprovedForAll",
      "outputs": [
        {
          "internalType": "bool",
          "name": "",
          "type": "bool"
        }
      ],
      "stateMutability": "view",
      "type": "function",
      "constant": true
    },
    {
      "inputs": [],
      "name": "name",
      "outputs": [
        {
          "internalType": "string",
          "name": "",
          "type": "string"
        }
      ],
      "stateMutability": "view",
      "type": "function",
      "constant": true
    },
    {
      "inputs": [
        {
          "internalType": "uint256",
          "name": "tokenId",
          "type": "uint256"
        }
      ],
      "name": "ownerOf",
      "outputs": [
        {
          "internalType": "address",
          "name": "",
          "type": "address"
        }
      ],
      "stateMutability": "view",
      "type": "function",
      "constant": true
    },
    {
      "inputs": [
        {
          "internalType": "address",
          "name": "from",
          "type": "address"
        },
        {
          "internalType": "address",
          "name": "to",
          "type": "address"
        },
        {
          "internalType": "uint256",
          "name": "tokenId",
          "type": "uint256"
        }
      ],
      "name": "safeTransferFrom",
      "outputs": [],
      "stateMutability": "nonpayable",
      "type": "function"
    },
    {
      "inputs": [
        {
          "internalType": "address",
          "name": "from",
          "type": "address"
        },
        {
          "internalType": "address",
          "name": "to",
          "type": "address"
        },
        {
          "internalType": "uint256",
          "name": "tokenId",
          "type": "uint256"
        },
        {
          "internalType": "bytes",
          "name": "_data",
          "type": "bytes"
        }
      ],
      "name": "safeTransferFrom",
      "outputs": [],
      "stateMutability": "nonpayable",
      "type": "function"
    },
    {
      "inputs": [
        {
          "internalType": "address",
          "name": "operator",
          "type": "address"
        },
        {
          "internalType": "bool",
          "name": "approved",
          "type": "bool"
        }
      ],
      "name": "setApprovalForAll",
      "outputs": [],
      "stateMutability": "nonpayable",
      "type": "function"
    },
    {
      "inputs": [
        {
          "internalType": "bytes4",
          "name": "interfaceId",
          "type": "bytes4"
        }
      ],
      "name": "supportsInterface",
      "outputs": [
        {
          "internalType": "bool",
          "name": "",
          "type": "bool"
        }
      ],
      "stateMutability": "view",
      "type": "function",
      "constant": true
    },
    {
      "inputs": [],
      "name": "symbol",
      "outputs": [
        {
          "internalType": "string",
          "name": "",
          "type": "string"
        }
      ],
      "stateMutability": "view",
      "type": "function",
      "constant": true
    },
    {
      "inputs": [
        {
          "internalType": "uint256",
          "name": "tokenId",
          "type": "uint256"
        }
      ],
      "name": "tokenURI",
      "outputs": [
        {
          "internalType": "string",
          "name": "",
          "type": "string"
        }
      ],
      "stateMutability": "view",
      "type": "function",
      "constant": true
    },
    {
      "inputs": [
        {
          "internalType": "address",
          "name": "from",
          "type": "address"
        },
        {
          "internalType": "address",
          "name": "to",
          "type": "address"
        },
        {
          "internalType": "uint256",
          "name": "tokenId",
          "type": "uint256"
        }
      ],
      "name": "transferFrom",
      "outputs": [],
      "stateMutability": "nonpayable",
      "type": "function"
    },
    {
      "inputs": [
        {
          "internalType": "address",
          "name": "owner",
          "type": "address"
        },
        {
          "internalType": "string",
          "name": "metadataURI",
          "type": "string"
        }
      ],
      "name": "mint",
      "outputs": [
        {
          "internalType": "uint256",
          "name": "",
          "type": "uint256"
        }
      ],
      "stateMutability": "nonpayable",
      "type": "function"
    },
    {
      "inputs": [
        {
          "internalType": "uint256",
          "name": "tokenId",
          "type": "uint256"
        },
        {
          "internalType": "string",
          "name": "metadataURI",
          "type": "string"
        }
      ],
      "name": "upgrade",
      "outputs": [],
      "stateMutability": "nonpayable",
      "type": "function"
    },
    {
      "inputs": [
        {
          "internalType": "address",
          "name": "owner",
          "type": "address"
        },
        {
          "internalType": "uint256",
          "name": "index",
          "type": "uint256"
        }
      ],
      "name": "tokenOfOwnerByIndex",
      "outputs": [
        {
          "internalType": "uint256",
          "name": "",
          "type": "uint256"
        }
      ],
      "stateMutability": "view",
      "type": "function",
      "constant": true
    },
    {
      "inputs": [],
      "name": "throwError",
      "outputs": [],
      "stateMutability": "pure",
      "type": "function",
      "constant": true
    }
  ],
  "bytecode": "0x60806040523480156200001157600080fd5b50604051620031d4380380620031d4833981810160405281019062000037919062000197565b818181600090805190602001906200005192919062000075565b5080600190805190602001906200006a92919062000075565b50505050506200037a565b82805462000083906200029f565b90600052602060002090601f016020900481019282620000a75760008555620000f3565b82601f10620000c257805160ff1916838001178555620000f3565b82800160010185558215620000f3579182015b82811115620000f2578251825591602001919060010190620000d5565b5b50905062000102919062000106565b5090565b5b808211156200012157600081600090555060010162000107565b5090565b60006200013c620001368462000233565b6200020a565b9050828152602081018484840111156200015557600080fd5b6200016284828562000269565b509392505050565b600082601f8301126200017c57600080fd5b81516200018e84826020860162000125565b91505092915050565b60008060408385031215620001ab57600080fd5b600083015167ffffffffffffffff811115620001c657600080fd5b620001d4858286016200016a565b925050602083015167ffffffffffffffff811115620001f257600080fd5b62000200858286016200016a565b9150509250929050565b60006200021662000229565b9050620002248282620002d5565b919050565b6000604051905090565b600067ffffffffffffffff8211156200025157620002506200033a565b5b6200025c8262000369565b9050602081019050919050565b60005b83811015620002895780820151818401526020810190506200026c565b8381111562000299576000848401525b50505050565b60006002820490506001821680620002b857607f821691505b60208210811415620002cf57620002ce6200030b565b5b50919050565b620002e08262000369565b810181811067ffffffffffffffff821117156200030257620003016200033a565b5b80604052505050565b7f4e487b7100000000000000000000000000000000000000000000000000000000600052602260045260246000fd5b7f4e487b7100000000000000000000000000000000000000000000000000000000600052604160045260246000fd5b6000601f19601f8301169050919050565b612e4a806200038a6000396000f3fe608060405234801561001057600080fd5b50600436106101165760003560e01c80636352211e116100a2578063b095a38211610071578063b095a382146102f1578063b88d4fde1461030d578063c87b56dd14610329578063d0def52114610359578063e985e9c51461038957610116565b80636352211e1461025757806370a082311461028757806395d89b41146102b7578063a22cb465146102d557610116565b806323b872dd116100e957806323b872dd146101b55780632f745c59146101d15780632f7643a81461020157806342842e0e1461020b5780634f3c5f061461022757610116565b806301ffc9a71461011b57806306fdde031461014b578063081812fc14610169578063095ea7b314610199575b600080fd5b61013560048036038101906101309190611ea3565b6103b9565b60405161014291906122fd565b60405180910390f35b61015361049b565b6040516101609190612318565b60405180910390f35b610183600480360381019061017e9190611ef5565b61052d565b6040516101909190612296565b60405180910390f35b6101b360048036038101906101ae9190611e67565b6105b2565b005b6101cf60048036038101906101ca9190611d0d565b6106ca565b005b6101eb60048036038101906101e69190611e67565b61072a565b6040516101f8919061253a565b60405180910390f35b610209610785565b005b61022560048036038101906102209190611d0d565b6107b7565b005b610241600480360381019061023c9190611e67565b6107d7565b60405161024e919061253a565b60405180910390f35b610271600480360381019061026c9190611ef5565b6107fc565b60405161027e9190612296565b60405180910390f35b6102a1600480360381019061029c9190611ca8565b6108ae565b6040516102ae919061253a565b60405180910390f35b6102bf610966565b6040516102cc9190612318565b60405180910390f35b6102ef60048036038101906102ea9190611dd7565b6109f8565b005b61030b60048036038101906103069190611f1e565b610a0e565b005b61032760048036038101906103229190611d5c565b610a1c565b005b610343600480360381019061033e9190611ef5565b610a7e565b6040516103509190612318565b60405180910390f35b610373600480360381019061036e9190611e13565b610bd0565b604051610380919061253a565b60405180910390f35b6103a3600480360381019061039e9190611cd1565b610c12565b6040516103b091906122fd565b60405180910390f35b60007f80ac58cd000000000000000000000000000000000000000000000000000000007bffffffffffffffffffffffffffffffffffffffffffffffffffffffff1916827bffffffffffffffffffffffffffffffffffffffffffffffffffffffff1916148061048457507f5b5e139f000000000000000000000000000000000000000000000000000000007bffffffffffffffffffffffffffffffffffffffffffffffffffffffff1916827bffffffffffffffffffffffffffffffffffffffffffffffffffffffff1916145b80610494575061049382610ca6565b5b9050919050565b6060600080546104aa90612790565b80601f01602080910402602001604051908101604052809291908181526020018280546104d690612790565b80156105235780601f106104f857610100808354040283529160200191610523565b820191906000526020600020905b81548152906001019060200180831161050657829003601f168201915b5050505050905090565b600061053882610d10565b610577576040517f08c379a000000000000000000000000000000000000000000000000000000000815260040161056e906124ba565b60405180910390fd5b6004600083815260200190815260200160002060009054906101000a900473ffffffffffffffffffffffffffffffffffffffff169050919050565b60006105bd826107fc565b90508073ffffffffffffffffffffffffffffffffffffffff168373ffffffffffffffffffffffffffffffffffffffff16141561062e576040517f08c379a0000000000000000000000000000000000000000000000000000000008152600401610625906124fa565b60405180910390fd5b8073ffffffffffffffffffffffffffffffffffffffff1661064d610d7c565b73ffffffffffffffffffffffffffffffffffffffff16148061067c575061067b81610676610d7c565b610c12565b5b6106bb576040517f08c379a00000000000000000000000000000000000000000000000000000000081526004016106b2906123fa565b60405180910390fd5b6106c58383610d84565b505050565b6106db6106d5610d7c565b82610e3d565b61071a576040517f08c379a00000000000000000000000000000000000000000000000000000000081526004016107119061251a565b60405180910390fd5b610725838383610f1b565b505050565b6000600860008473ffffffffffffffffffffffffffffffffffffffff1673ffffffffffffffffffffffffffffffffffffffff168152602001908152602001600020600083815260200190815260200160002054905092915050565b6040517ff2d1b8d100000000000000000000000000000000000000000000000000000000815260040160405180910390fd5b6107d283838360405180602001604052806000815250610a1c565b505050565b6008602052816000526040600020602052806000526040600020600091509150505481565b6000806002600084815260200190815260200160002060009054906101000a900473ffffffffffffffffffffffffffffffffffffffff169050600073ffffffffffffffffffffffffffffffffffffffff168173ffffffffffffffffffffffffffffffffffffffff1614156108a5576040517f08c379a000000000000000000000000000000000000000000000000000000000815260040161089c9061243a565b60405180910390fd5b80915050919050565b60008073ffffffffffffffffffffffffffffffffffffffff168273ffffffffffffffffffffffffffffffffffffffff16141561091f576040517f08c379a00000000000000000000000000000000000000000000000000000000081526004016109169061241a565b60405180910390fd5b600360008373ffffffffffffffffffffffffffffffffffffffff1673ffffffffffffffffffffffffffffffffffffffff168152602001908152602001600020549050919050565b60606001805461097590612790565b80601f01602080910402602001604051908101604052809291908181526020018280546109a190612790565b80156109ee5780601f106109c3576101008083540402835291602001916109ee565b820191906000526020600020905b8154815290600101906020018083116109d157829003601f168201915b5050505050905090565b610a0a610a03610d7c565b8383611182565b5050565b610a1882826112ef565b5050565b610a2d610a27610d7c565b83610e3d565b610a6c576040517f08c379a0000000000000000000000000000000000000000000000000000000008152600401610a639061251a565b60405180910390fd5b610a7884848484611363565b50505050565b6060610a8982610d10565b610ac8576040517f08c379a0000000000000000000000000000000000000000000000000000000008152600401610abf9061249a565b60405180910390fd5b6000600660008481526020019081526020016000208054610ae890612790565b80601f0160208091040260200160405190810160405280929190818152602001828054610b1490612790565b8015610b615780601f10610b3657610100808354040283529160200191610b61565b820191906000526020600020905b815481529060010190602001808311610b4457829003601f168201915b505050505090506000610b726113bf565b9050600081511415610b88578192505050610bcb565b600082511115610bbd578082604051602001610ba5929190612272565b60405160208183030381529060405292505050610bcb565b610bc6846113d6565b925050505b919050565b6000610bdc600761147d565b6000610be86007611493565b9050610bf484826114a1565b610bfe84826114bf565b610c0881846112ef565b8091505092915050565b6000600560008473ffffffffffffffffffffffffffffffffffffffff1673ffffffffffffffffffffffffffffffffffffffff16815260200190815260200160002060008373ffffffffffffffffffffffffffffffffffffffff1673ffffffffffffffffffffffffffffffffffffffff16815260200190815260200160002060009054906101000a900460ff16905092915050565b60007f01ffc9a7000000000000000000000000000000000000000000000000000000007bffffffffffffffffffffffffffffffffffffffffffffffffffffffff1916827bffffffffffffffffffffffffffffffffffffffffffffffffffffffff1916149050919050565b60008073ffffffffffffffffffffffffffffffffffffffff166002600084815260200190815260200160002060009054906101000a900473ffffffffffffffffffffffffffffffffffffffff1673ffffffffffffffffffffffffffffffffffffffff1614159050919050565b600033905090565b816004600083815260200190815260200160002060006101000a81548173ffffffffffffffffffffffffffffffffffffffff021916908373ffffffffffffffffffffffffffffffffffffffff160217905550808273ffffffffffffffffffffffffffffffffffffffff16610df7836107fc565b73ffffffffffffffffffffffffffffffffffffffff167f8c5be1e5ebec7d5bd14f71427d1e84f3dd0314c0f7b2291e5b200ac8c7c3b92560405160405180910390a45050565b6000610e4882610d10565b610e87576040517f08c379a0000000000000000000000000000000000000000000000000000000008152600401610e7e906123da565b60405180910390fd5b6000610e92836107fc565b90508073ffffffffffffffffffffffffffffffffffffffff168473ffffffffffffffffffffffffffffffffffffffff161480610ed45750610ed38185610c12565b5b80610f1257508373ffffffffffffffffffffffffffffffffffffffff16610efa8461052d565b73ffffffffffffffffffffffffffffffffffffffff16145b91505092915050565b8273ffffffffffffffffffffffffffffffffffffffff16610f3b826107fc565b73ffffffffffffffffffffffffffffffffffffffff1614610f91576040517f08c379a0000000000000000000000000000000000000000000000000000000008152600401610f889061235a565b60405180910390fd5b600073ffffffffffffffffffffffffffffffffffffffff168273ffffffffffffffffffffffffffffffffffffffff161415611001576040517f08c379a0000000000000000000000000000000000000000000000000000000008152600401610ff89061239a565b60405180910390fd5b61100c838383611526565b611017600082610d84565b6001600360008573ffffffffffffffffffffffffffffffffffffffff1673ffffffffffffffffffffffffffffffffffffffff168152602001908152602001600020600082825461106791906126a6565b925050819055506001600360008473ffffffffffffffffffffffffffffffffffffffff1673ffffffffffffffffffffffffffffffffffffffff16815260200190815260200160002060008282546110be919061261f565b92505081905550816002600083815260200190815260200160002060006101000a81548173ffffffffffffffffffffffffffffffffffffffff021916908373ffffffffffffffffffffffffffffffffffffffff160217905550808273ffffffffffffffffffffffffffffffffffffffff168473ffffffffffffffffffffffffffffffffffffffff167fddf252ad1be2c89b69c2b068fc378daa952ba7f163c4a11628f55a4df523b3ef60405160405180910390a461117d83838361152b565b505050565b8173ffffffffffffffffffffffffffffffffffffffff168373ffffffffffffffffffffffffffffffffffffffff1614156111f1576040517f08c379a00000000000000000000000000000000000000000000000000000000081526004016111e8906123ba565b60405180910390fd5b80600560008573ffffffffffffffffffffffffffffffffffffffff1673ffffffffffffffffffffffffffffffffffffffff16815260200190815260200160002060008473ffffffffffffffffffffffffffffffffffffffff1673ffffffffffffffffffffffffffffffffffffffff16815260200190815260200160002060006101000a81548160ff0219169083151502179055508173ffffffffffffffffffffffffffffffffffffffff168373ffffffffffffffffffffffffffffffffffffffff167f17307eab39ab6107e8899845ad3d59bd9653f200f220920489ca2b5937696c31836040516112e291906122fd565b60405180910390a3505050565b6112f882610d10565b611337576040517f08c379a000000000000000000000000000000000000000000000000000000000815260040161132e9061245a565b60405180910390fd5b8060066000848152602001908152602001600020908051906020019061135e929190611acc565b505050565b61136e848484610f1b565b61137a84848484611530565b6113b9576040517f08c379a00000000000000000000000000000000000000000000000000000000081526004016113b09061233a565b60405180910390fd5b50505050565b606060405180602001604052806000815250905090565b60606113e182610d10565b611420576040517f08c379a0000000000000000000000000000000000000000000000000000000008152600401611417906124da565b60405180910390fd5b600061142a6113bf565b9050600081511161144a5760405180602001604052806000815250611475565b80611454846116c7565b604051602001611465929190612272565b6040516020818303038152906040525b915050919050565b6001816000016000828254019250508190555050565b600081600001549050919050565b6114bb828260405180602001604052806000815250611874565b5050565b60006114ca836108ae565b905081600860008573ffffffffffffffffffffffffffffffffffffffff1673ffffffffffffffffffffffffffffffffffffffff168152602001908152602001600020600083815260200190815260200160002081905550505050565b505050565b505050565b60006115518473ffffffffffffffffffffffffffffffffffffffff166118cf565b156116ba578373ffffffffffffffffffffffffffffffffffffffff1663150b7a0261157a610d7c565b8786866040518563ffffffff1660e01b815260040161159c94939291906122b1565b602060405180830381600087803b1580156115b657600080fd5b505af19250505080156115e757506040513d601f19601f820116820180604052508101906115e49190611ecc565b60015b61166a573d8060008114611617576040519150601f19603f3d011682016040523d82523d6000602084013e61161c565b606091505b50600081511415611662576040517f08c379a00000000000000000000000000000000000000000000000000000000081526004016116599061233a565b60405180910390fd5b805181602001fd5b63150b7a0260e01b7bffffffffffffffffffffffffffffffffffffffffffffffffffffffff1916817bffffffffffffffffffffffffffffffffffffffffffffffffffffffff1916149150506116bf565b600190505b949350505050565b6060600082141561170f576040518060400160405280600181526020017f3000000000000000000000000000000000000000000000000000000000000000815250905061186f565b600082905060005b6000821461174157808061172a906127f3565b915050600a8261173a9190612675565b9150611717565b60008167ffffffffffffffff811115611783577f4e487b7100000000000000000000000000000000000000000000000000000000600052604160045260246000fd5b6040519080825280601f01601f1916602001820160405280156117b55781602001600182028036833780820191505090505b5090505b60008514611868576001826117ce91906126a6565b9150600a856117dd919061283c565b60306117e9919061261f565b60f81b818381518110611825577f4e487b7100000000000000000000000000000000000000000000000000000000600052603260045260246000fd5b60200101907effffffffffffffffffffffffffffffffffffffffffffffffffffffffffffff1916908160001a905350600a856118619190612675565b94506117b9565b8093505050505b919050565b61187e83836118f2565b61188b6000848484611530565b6118ca576040517f08c379a00000000000000000000000000000000000000000000000000000000081526004016118c19061233a565b60405180910390fd5b505050565b6000808273ffffffffffffffffffffffffffffffffffffffff163b119050919050565b600073ffffffffffffffffffffffffffffffffffffffff168273ffffffffffffffffffffffffffffffffffffffff161415611962576040517f08c379a00000000000000000000000000000000000000000000000000000000081526004016119599061247a565b60405180910390fd5b61196b81610d10565b156119ab576040517f08c379a00000000000000000000000000000000000000000000000000000000081526004016119a29061237a565b60405180910390fd5b6119b760008383611526565b6001600360008473ffffffffffffffffffffffffffffffffffffffff1673ffffffffffffffffffffffffffffffffffffffff1681526020019081526020016000206000828254611a07919061261f565b92505081905550816002600083815260200190815260200160002060006101000a81548173ffffffffffffffffffffffffffffffffffffffff021916908373ffffffffffffffffffffffffffffffffffffffff160217905550808273ffffffffffffffffffffffffffffffffffffffff16600073ffffffffffffffffffffffffffffffffffffffff167fddf252ad1be2c89b69c2b068fc378daa952ba7f163c4a11628f55a4df523b3ef60405160405180910390a4611ac86000838361152b565b5050565b828054611ad890612790565b90600052602060002090601f016020900481019282611afa5760008555611b41565b82601f10611b1357805160ff1916838001178555611b41565b82800160010185558215611b41579182015b82811115611b40578251825591602001919060010190611b25565b5b509050611b4e9190611b52565b5090565b5b80821115611b6b576000816000905550600101611b53565b5090565b6000611b82611b7d8461257a565b612555565b905082815260208101848484011115611b9a57600080fd5b611ba584828561274e565b509392505050565b6000611bc0611bbb846125ab565b612555565b905082815260208101848484011115611bd857600080fd5b611be384828561274e565b509392505050565b600081359050611bfa81612db8565b92915050565b600081359050611c0f81612dcf565b92915050565b600081359050611c2481612de6565b92915050565b600081519050611c3981612de6565b92915050565b600082601f830112611c5057600080fd5b8135611c60848260208601611b6f565b91505092915050565b600082601f830112611c7a57600080fd5b8135611c8a848260208601611bad565b91505092915050565b600081359050611ca281612dfd565b92915050565b600060208284031215611cba57600080fd5b6000611cc884828501611beb565b91505092915050565b60008060408385031215611ce457600080fd5b6000611cf285828601611beb565b9250506020611d0385828601611beb565b9150509250929050565b600080600060608486031215611d2257600080fd5b6000611d3086828701611beb565b9350506020611d4186828701611beb565b9250506040611d5286828701611c93565b9150509250925092565b60008060008060808587031215611d7257600080fd5b6000611d8087828801611beb565b9450506020611d9187828801611beb565b9350506040611da287828801611c93565b925050606085013567ffffffffffffffff811115611dbf57600080fd5b611dcb87828801611c3f565b91505092959194509250565b60008060408385031215611dea57600080fd5b6000611df885828601611beb565b9250506020611e0985828601611c00565b9150509250929050565b60008060408385031215611e2657600080fd5b6000611e3485828601611beb565b925050602083013567ffffffffffffffff811115611e5157600080fd5b611e5d85828601611c69565b9150509250929050565b60008060408385031215611e7a57600080fd5b6000611e8885828601611beb565b9250506020611e9985828601611c93565b9150509250929050565b600060208284031215611eb557600080fd5b6000611ec384828501611c15565b91505092915050565b600060208284031215611ede57600080fd5b6000611eec84828501611c2a565b91505092915050565b600060208284031215611f0757600080fd5b6000611f1584828501611c93565b91505092915050565b60008060408385031215611f3157600080fd5b6000611f3f85828601611c93565b925050602083013567ffffffffffffffff811115611f5c57600080fd5b611f6885828601611c69565b9150509250929050565b611f7b816126da565b82525050565b611f8a816126ec565b82525050565b6000611f9b826125dc565b611fa581856125f2565b9350611fb581856020860161275d565b611fbe81612929565b840191505092915050565b6000611fd4826125e7565b611fde8185612603565b9350611fee81856020860161275d565b611ff781612929565b840191505092915050565b600061200d826125e7565b6120178185612614565b935061202781856020860161275d565b80840191505092915050565b6000612040603283612603565b915061204b8261293a565b604082019050919050565b6000612063602583612603565b915061206e82612989565b604082019050919050565b6000612086601c83612603565b9150612091826129d8565b602082019050919050565b60006120a9602483612603565b91506120b482612a01565b604082019050919050565b60006120cc601983612603565b91506120d782612a50565b602082019050919050565b60006120ef602c83612603565b91506120fa82612a79565b604082019050919050565b6000612112603883612603565b915061211d82612ac8565b604082019050919050565b6000612135602a83612603565b915061214082612b17565b604082019050919050565b6000612158602983612603565b915061216382612b66565b604082019050919050565b600061217b602e83612603565b915061218682612bb5565b604082019050919050565b600061219e602083612603565b91506121a982612c04565b602082019050919050565b60006121c1603183612603565b91506121cc82612c2d565b604082019050919050565b60006121e4602c83612603565b91506121ef82612c7c565b604082019050919050565b6000612207602f83612603565b915061221282612ccb565b604082019050919050565b600061222a602183612603565b915061223582612d1a565b604082019050919050565b600061224d603183612603565b915061225882612d69565b604082019050919050565b61226c81612744565b82525050565b600061227e8285612002565b915061228a8284612002565b91508190509392505050565b60006020820190506122ab6000830184611f72565b92915050565b60006080820190506122c66000830187611f72565b6122d36020830186611f72565b6122e06040830185612263565b81810360608301526122f28184611f90565b905095945050505050565b60006020820190506123126000830184611f81565b92915050565b600060208201905081810360008301526123328184611fc9565b905092915050565b6000602082019050818103600083015261235381612033565b9050919050565b6000602082019050818103600083015261237381612056565b9050919050565b6000602082019050818103600083015261239381612079565b9050919050565b600060208201905081810360008301526123b38161209c565b9050919050565b600060208201905081810360008301526123d3816120bf565b9050919050565b600060208201905081810360008301526123f3816120e2565b9050919050565b6000602082019050818103600083015261241381612105565b9050919050565b6000602082019050818103600083015261243381612128565b9050919050565b600060208201905081810360008301526124538161214b565b9050919050565b600060208201905081810360008301526124738161216e565b9050919050565b6000602082019050818103600083015261249381612191565b9050919050565b600060208201905081810360008301526124b3816121b4565b9050919050565b600060208201905081810360008301526124d3816121d7565b9050919050565b600060208201905081810360008301526124f3816121fa565b9050919050565b600060208201905081810360008301526125138161221d565b9050919050565b6000602082019050818103600083015261253381612240565b9050919050565b600060208201905061254f6000830184612263565b92915050565b600061255f612570565b905061256b82826127c2565b919050565b6000604051905090565b600067ffffffffffffffff821115612595576125946128fa565b5b61259e82612929565b9050602081019050919050565b600067ffffffffffffffff8211156125c6576125c56128fa565b5b6125cf82612929565b9050602081019050919050565b600081519050919050565b600081519050919050565b600082825260208201905092915050565b600082825260208201905092915050565b600081905092915050565b600061262a82612744565b915061263583612744565b9250827fffffffffffffffffffffffffffffffffffffffffffffffffffffffffffffffff0382111561266a5761266961286d565b5b828201905092915050565b600061268082612744565b915061268b83612744565b92508261269b5761269a61289c565b5b828204905092915050565b60006126b182612744565b91506126bc83612744565b9250828210156126cf576126ce61286d565b5b828203905092915050565b60006126e582612724565b9050919050565b60008115159050919050565b60007fffffffff0000000000000000000000000000000000000000000000000000000082169050919050565b600073ffffffffffffffffffffffffffffffffffffffff82169050919050565b6000819050919050565b82818337600083830152505050565b60005b8381101561277b578082015181840152602081019050612760565b8381111561278a576000848401525b50505050565b600060028204905060018216806127a857607f821691505b602082108114156127bc576127bb6128cb565b5b50919050565b6127cb82612929565b810181811067ffffffffffffffff821117156127ea576127e96128fa565b5b80604052505050565b60006127fe82612744565b91507fffffffffffffffffffffffffffffffffffffffffffffffffffffffffffffffff8214156128315761283061286d565b5b600182019050919050565b600061284782612744565b915061285283612744565b9250826128625761286161289c565b5b828206905092915050565b7f4e487b7100000000000000000000000000000000000000000000000000000000600052601160045260246000fd5b7f4e487b7100000000000000000000000000000000000000000000000000000000600052601260045260246000fd5b7f4e487b7100000000000000000000000000000000000000000000000000000000600052602260045260246000fd5b7f4e487b7100000000000000000000000000000000000000000000000000000000600052604160045260246000fd5b6000601f19601f8301169050919050565b7f4552433732313a207472616e7366657220746f206e6f6e20455243373231526560008201527f63656976657220696d706c656d656e7465720000000000000000000000000000602082015250565b7f4552433732313a207472616e736665722066726f6d20696e636f72726563742060008201527f6f776e6572000000000000000000000000000000000000000000000000000000602082015250565b7f4552433732313a20746f6b656e20616c7265616479206d696e74656400000000600082015250565b7f4552433732313a207472616e7366657220746f20746865207a65726f2061646460008201527f7265737300000000000000000000000000000000000000000000000000000000602082015250565b7f4552433732313a20617070726f766520746f2063616c6c657200000000000000600082015250565b7f4552433732313a206f70657261746f7220717565727920666f72206e6f6e657860008201527f697374656e7420746f6b656e0000000000000000000000000000000000000000602082015250565b7f4552433732313a20617070726f76652063616c6c6572206973206e6f74206f7760008201527f6e6572206e6f7220617070726f76656420666f7220616c6c0000000000000000602082015250565b7f4552433732313a2062616c616e636520717565727920666f7220746865207a6560008201527f726f206164647265737300000000000000000000000000000000000000000000602082015250565b7f4552433732313a206f776e657220717565727920666f72206e6f6e657869737460008201527f656e7420746f6b656e0000000000000000000000000000000000000000000000602082015250565b7f45524337323155524953746f726167653a2055524920736574206f66206e6f6e60008201527f6578697374656e7420746f6b656e000000000000000000000000000000000000602082015250565b7f4552433732313a206d696e7420746f20746865207a65726f2061646472657373600082015250565b7f45524337323155524953746f726167653a2055524920717565727920666f722060008201527f6e6f6e6578697374656e7420746f6b656e000000000000000000000000000000602082015250565b7f4552433732313a20617070726f76656420717565727920666f72206e6f6e657860008201527f697374656e7420746f6b656e0000000000000000000000000000000000000000602082015250565b7f4552433732314d657461646174613a2055524920717565727920666f72206e6f60008201527f6e6578697374656e7420746f6b656e0000000000000000000000000000000000602082015250565b7f4552433732313a20617070726f76616c20746f2063757272656e74206f776e6560008201527f7200000000000000000000000000000000000000000000000000000000000000602082015250565b7f4552433732313a207472616e736665722063616c6c6572206973206e6f74206f60008201527f776e6572206e6f7220617070726f766564000000000000000000000000000000602082015250565b612dc1816126da565b8114612dcc57600080fd5b50565b612dd8816126ec565b8114612de357600080fd5b50565b612def816126f8565b8114612dfa57600080fd5b50565b612e0681612744565b8114612e1157600080fd5b5056fea264697066735822122060bb3b407e8ded54685a1c48255dd4190757610606d32b4e3bc6e9c99522442c64736f6c63430008040033",
  "immutableReferences": {},
  "source": "// SPDX-License-Identifier: UNLICENSED\npragma solidity >=0.8.4;\n\nimport \"@openzeppelin/contracts/token/ERC721/ERC721.sol\";\nimport \"@openzeppelin/contracts/utils/Counters.sol\";\nimport \"@openzeppelin/contracts/token/ERC721/extensions/ERC721URIStorage.sol\";\n\nerror MinterError();\n\ncontract Minter is ERC721URIStorage {\n    using Counters for Counters.Counter;\n    Counters.Counter private _tokenIds;\n    mapping(address => mapping(uint256 => uint256)) public _ownedTokens;\n\n    constructor(string memory tokenName, string memory symbol)\n        ERC721(tokenName, symbol)\n    {}\n\n    function mint(address owner, string memory metadataURI) public returns (uint256) {\n        _tokenIds.increment();\n        uint256 tokenId = _tokenIds.current();\n\n        _safeMint(owner, tokenId);\n\n        _addTokenToOwnerEnumeration(owner, tokenId);\n\n        _setTokenURI(tokenId, metadataURI);\n\n        return tokenId;\n    }\n\n    function upgrade(uint256 tokenId, string memory metadataURI) public {\n        _setTokenURI(tokenId, metadataURI);\n    }\n\n    function _addTokenToOwnerEnumeration(address owner, uint256 tokenId)\n        private\n    {\n        uint256 length = balanceOf(owner);\n        _ownedTokens[owner][length] = tokenId;\n    }\n\n    function tokenOfOwnerByIndex(address owner, uint256 index)\n        public\n        view\n        virtual\n        returns (uint256)\n    {\n        //require(index < balanceOf(owner), \"ERC721Enumerable: owner index out of bounds\");\n        return _ownedTokens[owner][index];\n    }\n\n    function throwError() external pure {\n        revert MinterError();\n    }\n}\n",
  "sourcePath": "/Users/lol/apps/fun/vechain-nft-generator-framework/contracts/contracts/Minter.sol",
  "compiler": {
    "name": "solc",
    "version": "0.8.4+commit.c7e474f2.Emscripten.clang"
  },
  "schemaVersion": "3.4.7",
  "updatedAt": "2022-05-30T22:54:18.823Z",
  "networkType": "ethereum",
  "devdoc": {
    "kind": "dev",
    "methods": {
      "approve(address,uint256)": {
        "details": "See {IERC721-approve}."
      },
      "balanceOf(address)": {
        "details": "See {IERC721-balanceOf}."
      },
      "getApproved(uint256)": {
        "details": "See {IERC721-getApproved}."
      },
      "isApprovedForAll(address,address)": {
        "details": "See {IERC721-isApprovedForAll}."
      },
      "name()": {
        "details": "See {IERC721Metadata-name}."
      },
      "ownerOf(uint256)": {
        "details": "See {IERC721-ownerOf}."
      },
      "safeTransferFrom(address,address,uint256)": {
        "details": "See {IERC721-safeTransferFrom}."
      },
      "safeTransferFrom(address,address,uint256,bytes)": {
        "details": "See {IERC721-safeTransferFrom}."
      },
      "setApprovalForAll(address,bool)": {
        "details": "See {IERC721-setApprovalForAll}."
      },
      "supportsInterface(bytes4)": {
        "details": "See {IERC165-supportsInterface}."
      },
      "symbol()": {
        "details": "See {IERC721Metadata-symbol}."
      },
      "tokenURI(uint256)": {
        "details": "See {IERC721Metadata-tokenURI}."
      },
      "transferFrom(address,address,uint256)": {
        "details": "See {IERC721-transferFrom}."
      }
    },
    "version": 1
  },
  "userdoc": {
    "kind": "user",
    "methods": {},
    "version": 1
  }
}